:200000003006DF095512F7098212F9098612F9098512F8098412F7098112F3097B12F209E6
:200020007912EE097212F3097A12EA096A12EA096912EB096C12EF097212E9096812EA0908
:200040006812EF097312EC096E12F0097612F4097D12F4097C12F6098112F9098512FA096E
:200060008712FD098D12FC098A12FC098B12000A9212080AA112060A9D120A0AA412F50905
:200080007E12AE0AD513BE091712C9092D12C5092412C2092012BD091512B7090A12B109AB
:2000A000FF11AF09FD11A709ED11A709EE119D09DB119A09D6119A09D6119D09DA1193093A
:2000C000C8119309C7119809D2119209C6119409C9119609CD119309C9119609CE11970955
:2000E000D0119809D1119909D3119709CF119809D1119B09D711A209E411A209E411A50999
:20010000E9119109C41168097711A109E311AD09F811A509E911A209E4119B09D7119609AD
:20012000CD119009C2118C09BB118509AD118509AD1179099811760992117609921179098B
:200140009711700987116E09831171098A116C097F116F098411700987116E09831170091F
:20016000881172098B1172098B117509911173098C1174098E11780997117F09A211800976
:20018000A5118309AA1175098F119108E90F7A0999118409AD117C099C1179099711710965
:2001A0008A116A097B1163096F115E096611550955115509551148093D11450937114409D1
:2001C0003611460939113D0927113C09271140092D11390921113B0924113D0928113A090E
:2001E00023113B0924113F092D1140092F1143093311410930114109301147093B114C09AC
:2002000044114E09471150094C113B092511000000005B096011640970115B095F115509B5
:2002200055114F094A11460938113F092B11390921112F090F112F090F112309F7101E090B
:20024000EE101D09EE101E09EE101609DF101609DF101909E6101109D7101309DB101409FE
:20026000DC101309D9101409DC101909E6101909E6101E09EE101C09EA101D09ED102309C1
:20028000F810280901112A0905112D090B111909E5100000000035091A113E092A11340939
:2002A00017112D090A112609FE101D09ED101309DB100E09D1100309BD100409BF10F608B3
:2002C000A410F0089910F0089810F0089A10E8088A10E7088910EB089010E3088010E5087A
:2002E0008510E7088810E4088310E7088810EC089210EE089510F1089A10F0089910F2086D
:200300009D10F808A810FE08B4100109B8100309BC10EE089510000000001809E2101F092E
:20032000F0101509DD100C09CE100509C010FB08AE10F1089B10EB089010DF087A10E00890
:200340007B10D2086210CC085610CA085210CA085210C1084210C3084510C6084B10BE08FA
:200360003C10C0083F10C2084310BF083F10C2084410C7084D10C9085010CE085910CD0858
:200380005910CE085A10D5086710DE087810DF087A10E3088110CA085210000000000109C7
:2003A000B8100809C610FD08B110F508A310EC089310E3088210D8086C10D1086010C50892
:2003C0004910C5084910B7083010B2082610AE081E10AC081C10A4080C10A5080E10A908A7
:2003E0001610A2080810A1080710A5080D10A3080B10A6081010AA081810AC081B10B20884
:200400002610B3082810B3082810BC083910C5084910C7084D10CC085510B2082510000039
:200420000000F808A810FC08B010F0089A10E8088A10E0087B10D6086810CA085210C2084D
:200440004410B4082910B4082910A6080F10A00804109B08FB0F9A08FA0F9308EC0F91084E
:20046000E90F9608F20F8F08E50F8E08E40F9108E90F9108E80F9408EE0F9708F50F9A08D2
:20048000FA0FA0080510A2080910A3080A10AB081810B6082C10B8083110BD083B10A3087D
:2004A000091000000000EB089010F0089810E3088110D8086D10CF085C10C5084A10B808ED
:2004C0003110B1082410A2080710A20809109308EC0F8D08E10F8908D90F8608D40F8008DD
:2004E000CA0F7F08C70F8308D00F7A08BE0F7B08BF0F7D08C30F7C08C20F8008CA0F830824
:20050000CF0F8708D60F8D08E10F9108E80F9108E90F9908F80FA3080B10A7081210AD08EF
:200520001D109408ED0F00000000DA087010DF087A10D2086110C7084C10BC083810B108E8
:200540002410A4080C109D08FF0F8D08E10F8F08E40F7F08C70F7708B90F7308B20F710884
:20056000AD0F69089F0F6A08A00F6D08A60F6408950F6408960F6608990F6408960F69089C
:200580009E0F6E08A70F7208AF0F7708B80F7D08C30F7D08C30F8308CF0F9008E80F9308C3
:2005A000ED0F9B08FB0F8208CC0F00000000CC085510CE085A10C1084210B4082A10AA08F1
:2005C00016109E0800109008E70F8A08DC0F7A08BE0F7C08C20F6C08A40F6408950F5E08F3
:2005E0008A0F5C08860F5408770F5408770F57087D0F4E086C0F4F086E0F5308750F5008DE
:20060000710F5308760F5908800F5D08870F6408940F68089D0F69089F0F7108AC0F7D088C
:20062000C30F8008CA0F8708D70F7008AB0F00000000BF083E10C1084110B2082610A40815
:200640000C109908F80F8E08E30F7F08C70F7908BC0F67089B0F6A08A00F5A08820F51081F
:20066000720F4C08690F4808610F4008520F3E08500F4208570F3A08480F3B08490F3E08F5
:200680004F0F3D084C0F4108540F45085B0F4B08670F5208740F56087B0F58087F0F600815
:2006A0008E0F6C08A40F7008AC0F7808BA0F5F088C0F00000000AE081E10B0082210A10881
:2006C00007109408EE0F8908D90F7D08C40F6D08A60F6608990F5508790F56087B0F45083F
:2006E0005B0F3D084C0F3808430F34083C0F2C082D0F2A082A0F2E08300F24081F0F250800
:20070000210F2808270F2608220F2B082C0F3108370F3608400F3D084D0F4308570F4508CB
:200720005B0F4E086C0F5908800F5E088A0F6508970F4C08690F000000009B08FB0F9C085F
:20074000FE0F8E08E30F8008CA0F7408B30F69089E0F5A08830F5108720F3E084F0F40088D
:20076000530F2E08310F2608220F22081A0F1D08110F1608050F1408010F1708050F0D0804
:20078000F40E0E08F60E1108FB0E0F08F70E1508020F1B080D0F2008170F2708240F2D08AD
:2007A0002F0F3008350F3A08470F4408590F4A08650F5108710F3808430F000000008C086E
:2007C000E00F8D08E10F7F08C70F7208AF0F6508970F58087F0F4908630F4108540F2E086A
:2007E000300F2F08330F1C08100F1408010F0E08F60E0B08F00E0408E20E0208E00E0508A6
:20080000E50EFC07D30EFC07D40EFE07D70EFD07D70E0208E00E0908EC0E0F08F60E15080E
:20082000030F1A080C0F1F08160F2A08290F35083F0F3B08490F4108540F2808250F00007D
:2008400000007B08BF0F7A08BF0F6B08A20F5D08890F5208730F45085C0F35083E0F2E0882
:20086000310F1A080D0F1B080D0F0708E90E0008DB0EF907CE0EF507C70EED07B80EEB076B
:20088000B50EF007BE0EE607AB0EE807AE0EEB07B40EE907B10EEE07BA0EF307C40EFA0794
:2008A000D00E0108DC0E0708E80E0A08EE0E1508020F1F08160F2608220F2C082D0F1408EF
:2008C000010F000000006408950F6408960F56087A0F4808600F3B08490F3008360F1F0802
:2008E000150F1808070F0408E40E0408E40EF207C10EE907B00EE207A40EDF079D0ED70722
:20090000900ED407890EDA07940ED007830ED207850ED5078C0ED307880ED807920EDE0726
:200920009B0EE407A80EEB07B50EF207C10EF607C90E0008DB0E0C08F20E1208FD0E1908D1
:20094000090F0108DD0E000000005908810F5908810F4A08650F3C084B0F3008360F24089C
:200960001E0F1308000F0B08EF0EF707CB0EF707CC0EE607AB0EDC07990ED5078C0ED107E3
:20098000840ECA07760EC707720ECB07790EC3076A0EC4076D0EC907750EC5076F0ECC07D2
:2009A0007B0ED007820ED6078D0EDE079D0EE407A80EEA07B30EF507C70E0008DC0E06081B
:2009C000E70E0D08F40EF507C70E000000005308750F5308750F4308580F3708420F2B0807
:2009E0002B0F1E08120F0D08F30E0408E20EEF07BC0EF007BE0EDF079E0ED5078C0ECE0704
:200A00007E0ECA07780EC207690EC007650EC4076C0EBB075C0EBC075D0EC007650EBF07DA
:200A2000630EC6076F0ECA07770ED107830ED807900EDD079B0EE307A50EEE07BA0EFB07D6
:200A4000D20E0108DD0E0908EB0EF007BD0E000000005908800F58087F0F4808610F3C0814
:200A60004B0F3008340F2108190F1108FA0E0808EB0EF307C40EF407C40EE207A40ED80713
:200A8000920ED107850ECD077C0EC5076D0EC207680EC6076F0EBD075F0EBE07600EC207F0
:200AA000680EC107670EC807730ECD077D0ED4078A0EDA07950EE007A00EE507AA0EF007AD
:200AC000BF0EFE07D80E0408E20E0D08F30EF407C50E000000005A08830F58087F0F48084C
:200AE000620F3C084A0F2F08320F23081C0F1108FB0E0808EB0EF407C50EF407C60EE1076A
:200B0000A30ED807910ED107840ECD077C0EC607700EC207690EC5076E0EBC075D0EBE0718
:200B2000600EC207690EC207680EC807730ECE077F0ED5078C0EDD079A0EE107A20EE6078F
:200B4000AC0EF207C20EFF07DA0E0708E80E1008F90EF707CA0E000000005B08850F5908D2
:200B6000820F4808610F3A08470F2E08310F24081D0F1108FB0E0708E80EF407C60EF307CE
:200B8000C40EE107A10ED6078E0ED007830ECC077B0EC5076E0EC107660EC5076D0EBC0721
:200BA0005D0EBC075E0EC207680EC107660EC707710ECD077E0ED4078A0EDE079B0EE20789
:200BC000A40EE607AC0EF207C20E0008DC0E0708E90E1008FA0EF707CB0E000000006C0890
:200BE000A40F68089D0F56087A0F46085D0F3908450F2D082E0F1A080C0F1108FB0EFD071B
:200C0000D70EFD07D50EE807B00EDE079C0ED7078F0ED207870ECA07770EC707720ECB076D
:200C20007A0EC307690EC4076C0EC807740EC807730ECE077E0ED5078B0EDC07990EE707B7
:200C4000AD0EED07B80EF107BF0EFD07D60E0B08EF0E1308FE0E1D08110F0508E40E0000F7
:100C60000000060018FCC20118FC400670FE1400CB
:00000001FF