:200000008020C60000310300700001FB0071400061487D2E3A9A00CA697C55F76A7B557557
:200020006C3D54793B801898B500624A9BA2D4B56181780BA21AF84A3B4640106A3DD4FC0D
:200040006A1B54BC3B801541B5004288B500543B7C44D4B861C042916ABED4B63B80024B3D
:200060009BC362096ADDD43D3A90002561CC42806ABED4B93B80024B9BC362099BA0D43BB1
:200080003A8800966604450A7940C3803A89FF6B80185439B50054FB3B80043980D47455E8
:2000A0007F4E54BB6A5CC2883B80029C3CC8FFD57F4E543BB5004300381200CF382000A2BC
:2000C000B50076083B8002CD9BA274557F4E543BB50043003A9000C86ABDF455B5006209E7
:2000E00030B0027E305000803B80045530A00E007F4E543DB500430090DB54BB61447E9C1F
:20010000A2177E9C3B4340A6FB0071403E3A89FF36B50054FE3812027E3060008030800E27
:200120000030A001803B8002B8B50061463080010030500100307000803B800048380C0202
:20014000FF30900180380A20012080405230800100B5004201B5004308D4C842016024FEC0
:200160009C309001003050008030A0203E3B80040A3080018030800100305000803B80028C
:200180005F30900100B50054B53A890087B500428882147E9C3B65406434000E8D3B00407A
:2001A000A634000E8E3080010030A00180305000403B8003353A8800013808200030900130
:2001C000003060003F203F4074380A20008BE07B00B5004009A2107E9C3B67407380806472
:2001E0000790FCFE9CB5007E9C693FE11030900180B50076483B800258B0DA62093A20FF53
:20020000FFB5007A40FB0071407C30800100203F40813090018080684009B2087E9CA06C25
:200220004009B5007640386C20003CD80604201740889BA4C308A6BAFE9CB44AFE9C9BC72B
:20024000E176B5006103D024741230A00E8FA403624A380A0E83380C0E823B80022B9BE0EA
:20026000D052380A0E85380C0E8430A00E90B50074123B80022B9BE0E24A380A0E8F380C56
:200280000E86A2177E9C3B64409E3B00409F34000E8D34010E8D380A0E90380C0E87A2174F
:2002A0007E9C3B6440A53B0040A634000E8E34010E8E3B8005B6B5007E9C7F4E54BEB50005
:2002C0004488380C0E8D380E0E8138000E8082187E9C3A8100293B4340BF380C0E8C9BBF8B
:2002E000D537A213FE9C3B6440BFA2107E9C3B6740BF38080E88D04554B53A890050B500DC
:200300001261FB007140BA380E027F95D8C3C0B3D37E9C3B0040CE380D0E8C38020E8E822D
:20032000047E9C3B4340C77F2042D0A213FE9C3B6440C7A2107E9C3B6640CE38080E89D052
:20034000447E9C380C0E8AB50061009590FE9CB2DA7E9C380D0E8C6A1DD4BD61004308A2A3
:20036000137E9C3A89FFEB3B4640D6B50054F73A88FF93B50042D0B5004288821454353A19
:2003800080005D3A89FFA5B500553C3B4340EB6A3E54FB3A8200989BA0F845311FFF69614E
:2003A000C84C0D6A7EC5006A1B7281B50074553B800439801861856A5CD53D3B801AF03C2A
:2003C000C8FFD53B0040ECB50054B7B50054B761447E9C98B554BBB5007E9C821443083B94
:2003E0006340F5B50054363B80029C80B874553B2040FE6A1AD4B83A8900223A800014FB75
:20040000007140F861044280D00C745530A0076C9403D4363B8001C7B50061409BA0D4BBE0
:200420003A81009761C44504310FFF696A3BCC056A5B7281B50074153B8004398018618572
:200440006A5CD537B50054363B80199AB5007E9C9213FE9C3B62412A8B8054BC3A81FFF141
:2004600060087881380A0E8CB5004A00B302C30890DBCA403A9A0011B2D342989217C34853
:20048000B50048503B424128B50054353A98005EB500431882187E9C3B6641283A88005FCC
:2004A000B500430890D8FE9CA21AC3483B6641266C1D7E4A3B00412BB5007E483B00412B51
:2004C000B500583A3B00412BB500583A9B9FD83A3CD803007F4E7D523A88000B9B8C42882A
:2004E000A6567D0539022024AA08C4003A8900A7BA41587BB5005C7D3B801507FB0071413F
:2005000036BA20DA7C6D5E50BD3A91001882047E503A9AFF653A8000293A930095380802A7
:200520007F380C0E8BBF10424030100020380D0E8CBB0040D86ABE4C90B500547D318020A1
:20054000073B8002A39BA2CA487F4E54BCB5004C883A91FF42B500429096F4D53D3A81FF96
:20056000406148FDA93A8800B0618A72E86A7EC40030400080307002BC3B801D08B5005551
:200580007CB500543D3A88000F6224440A3A91FF4E305000803B8002C1B500557D6ADE543B
:2005A000BD3A81FFF37222C28030A002F6610442987B48F805380C20077F2C43486A3EC02B
:2005C00010697FD27E3B801C443801027D30000020B900543D9B2B553CB00452BE380820EB
:2005E00001A6D0523F3A8000108B8042509BA242C03A8800B5B500537CFB00714174311FE1
:20060000FFE9693F440D3B8002C1B50054FD7F4E543DB50044003B8002C19BA77E9C7D8C3B
:20062000543D7C24C4856A3ED2BC616444003B8004A4305000809BA2523E9090D4BDA2126C
:20064000FB24B5004C8D3B4441743110001CB5004CCDB500583B3CD803008B807D7BB50077
:200660007E9C6AFC7D293AA300386A7EC69B3AAD00056AFD56F93AAD0004B50042A8821434
:20068000567B6C3F557CB50074583B42419DB50042983A9D00113B80029CB50055FF3B20FD
:2006A00041A39BC3D4383A8000293A9000106AFFC4003B80024B80F442906A5E55383B80A4
:2006C00018743CC8FFD89B00D43A3A88009480A0450A660443803A99FF7E6A1E54BD3B8074
:2006E000043980D455FA305066666A5D52D7B500529795D74388FB007141B2B3DF543F6124
:20070000407E9CB50055B930704CCD3A910052B3F7C2903A9B00153AA0FFF8821443486AA4
:20072000FFD67A3B4341C661E054B83A810037B500430082187E9C3B6241C63A81008CB55A
:2007400000430082187E9C3B6341DE3A8900613A81FFA161C04308B500547B3B8000483C37
:20076000C8FFD87F4E54BBB50043083A8100637F4E553F61204290B50074583B800258B5E1
:200780000062097F4E543BB50042803A8800366A7DD53DB50074183B80028AB500624A7FC2
:2007A0002454BB3B0041E0B50054BA9BA0D4BB6A5D42C8B5007E9C9BC44288A8B77E9C8259
:2007C000147E9C3B6241F26A1CD4B83A9100143A88001D614843083A82FFEED04C4300B59A
:2007E0000054BC9402620930A007E03B8001C7B50061401B007141F03B0041F3B500583EE1
:20080000B500583E3CD803008B807D57B5007E9C03007000072A00710300000001000F742C
:20082000004000003B80000001000F9C00418D003B8000000100102100412D003B8000002D
:2008400000060071031000000006007103140000000600710318000000060071031C000058
:2008600000060071032000000006007103240000000300700003090071027E000E0001477A
:20088000AE06007102FF1000003600710E8000003C0000057005AD7FD4567FF7437005AD06
:2008A0000666661999994007933FFFD002CCCD0900000900000000000000007FFFFF7FFF8B
:2008C000FF06007112BF01070103007000000300405A6B03005704000300400000030006A3
:0208E000000115
:00000001FF